:020000040800F2
:1000000000000120A9400008692600086D260008AC
:1000100071260008752600087926000800000000F7
:100020000000000000000000000000006136000831
:100030007D26000800000000013700088126000826
:10004000F1400008F1400008F1400008F1400008CC
:10005000F1400008F1400008F1400008F1400008BC
:10006000F1400008F1400008F1400008F1400008AC
:10007000F1400008F1400008F1400008F14000089C
:10008000F1400008F1400008F1400008F14000088C
:10009000F1400008F1400008F1400008F14000087C
:1000A000F1400008F1400008F1400008F14000086C
:1000B000F1400008F140000889260008F1400008DE
:1000C000F1400008F1400008F1400008F14000084C
:1000D000F1400008F1400008F1400008F14000083C
:1000E000F1400008F1400008F1400008F14000082C
:1000F000F1400008F1400008F1400008F14000081C
:10010000F1400008F1400008F1400008F14000080B
:10011000F1400008F1400008F1400008F1400008FB
:10012000F1400008F1400008F1400008F1400008EB
:1001300000000000000000000000000000000000BF
:1001400000000000000000000000000000000000AF
:10015000000000000000000000000000000000009F
:10016000000000000000000000000000000000008F
:10017000000000000000000000000000000000007F
:10018000000000000000000000000000000000006F
:10019000000000000000000000000000000000005F
:1001A000000000000000000000000000000000004F
:1001B000000000000000000000000000000000003F
:1001C000000000000000000000000000000000002F
:1001D000000000000000000000000000000000001F
:0401E0005FF8E0F1F3
:1001F000044B05481B1A062B02D9044B03B11847C0
:10020000704700BF0F0000200C000020000000001D
:1002100005490648091A891001EBD171491002D02D
:10022000034B03B1184770470C0000200C0000205E
:100230000000000010B5064C237843B9FFF7D8FF43
:10024000044B13B10448AFF300800123237010BDA9
:100250001000002000000000F440000808B5084B22
:100260001BB108490848AFF300800848036813B978
:10027000BDE80840CCE7064B002BF9D09847F7E7DC
:100280000000000014000020F44000080C000020D2
:100290000000000070B50F4E0F4D761BB61018BF52
:1002A000002405D0013455F8043B9847A642F9D103
:1002B0000A4E0B4D03F01EFF761BB61018BF00242C
:1002C00006D0013455F8043B9847A642F9D170BDD9
:1002D00070BD00BF9C4300089C430008A043000879
:1002E0009C43000830B5214A21F00043934287B077
:1002F0001BDD1F4A934205DD02460B4601F07AF9E9
:1003000007B030BD02AA00F07FF800F0030001281A
:100310001AD002280FD008B3DDE9020101230093AF
:10032000DDE9042300F0A4FFEAE70022002300F047
:1003300083FA07B030BDDDE90423DDE9020100F0F6
:100340007BFA01F10041DBE70090DDE90423DDE900
:10035000020100F08DFF01F10041D1E7DDE9042346
:10036000DDE9020100F068FACAE700BFFB21E93FBE
:10037000FFFFEF7F30B5214A21F00043934287B061
:100380001BDD1F4A934205DD02460B4601F032F9A0
:1003900007B030BD02AA00F037F800F003000128D2
:1003A0001ED0022811D0DDE9042300B3DDE90201EB
:1003B00000F042FA01F10041EAE700230093002235
:1003C000002300F055FF07B030BD01230093DDE9A5
:1003D0000201DDE9042300F04BFF01F10041D7E702
:1003E000DDE90423DDE9020100F026FAD0E701246B
:1003F000DDE90201009400F03BFFC9E7FB21E93F82
:10040000FFFFEF7F000000002DE9F04F944C21F03A
:100410000047A7428FB040F381801446914A0E46B0
:10042000974226DC84A3D3E90023002940F3A0816E
:1004300001F0E0F88C4B80469F42894600F08380B3
:100440007FA3D3E9002301F0D5F802460B464046CE
:10045000C4E90023494601F0CDF879A3D3E900238C
:1004600001F0C8F80125C4E9020128460FB0BDE833
:10047000F08F7E4A974240F383807D4A974258DC52
:100480003D15A5F21645A7EB05518B46824601F0B6
:10049000FFFC01F0FDF98046894642464B46504636
:1004A0005946CDE9088901F0A5F80022714B01F009
:1004B00055FA8B46824601F0EBFC01F0E9F98046E3
:1004C000894642464B4650465946CDE90A8901F0D5
:1004D00091F80022674B01F041FA00220023CDE998
:1004E0000C0101F0A3FC002800F06A8100234046C3
:1004F0004946002201F09AFC002814BF0123022380
:100500005D480221019000912A46214608A800F08A
:10051000B7FA002EC0F24A81054606E0C2E90001A2
:1005200000250024C2E90245002528460FB0BDE899
:10053000F08F02460B4601F05DF80025C4E9020188
:10054000C4E90001F1E740A3D3E9002301F052F828
:100550003FA3D3E9002306460F4601F04BF80246BD
:100560000B463046C4E90023394601F043F838A36E
:10057000D3E9002301F03EF80125C4E90201D4E7E4
:1005800000F02CFF34A3D3E900238046894601F014
:10059000E5F90022394B01F02FF801F079FC05460E
:1005A00001F076F924A3D3E90023CDE9040101F099
:1005B000D5F902460B464046494601F01BF820A3F8
:1005C000D3E9002382468B46DDE9040101F0C6F938
:1005D0001F2DCDE9020155DC294B6A1E53F822304C
:1005E0009F424FD002460B465046594601F002F852
:1005F00002460B4681468846C4E900234A464346E4
:100600005046594600F0F6FFDDE9022300F0F2FF04
:1006100002460B46002EC4E9022386DA4A4608F158
:10062000004301F1004184E80C00E160A0606D42EC
:100630007BE700BFAFF3008000004054FB21F93F8F
:100640003163621A61B4D03D0000601A61B4D03DDC
:100650007370032E8A19A33B83C8C96D305FE43FD2
:10066000FB21E93F7BD90240FB21F93FFB213941C6
:10067000FFFFEF7F00007041F44100080000E03F01
:1006800074410008DDE902235046594600F0B2FFEC
:100690003F15C1F30A53FB1A102B81468846C4E963
:1006A0000001ABDD58A3D3E90023DDE9040101F02B
:1006B00055F98046894602460B465046594600F099
:1006C00099FFCDE9060102460B465046594600F017
:1006D00091FF42464B4600F08DFF4DA3D3E9002326
:1006E00080468946DDE9040101F038F942464B466F
:1006F00000F080FF02460B46CDE90201DDE906016C
:1007000000F078FF0B4602468846C1F30A517F1A73
:10071000312F8146C4E9002372DD3FA3D3E90023D2
:10072000DDE9040101F01AF98046894602460B46CC
:10073000DDE9060100F05EFF02460B4682468B466D
:10074000DDE9060100F056FF42464B4600F052FF3D
:1007500033A3D3E9002380468946DDE9040101F093
:10076000FDF842464B4600F045FFCDE9020139E76E
:1007700000F042FF2E4B80469F42894622D02AA39A
:10078000D3E9002300F038FF02460B464046C4E997
:100790000023494600F02EFF23A3D3E9002300F0F5
:1007A0002BFF4FF0FF35C4E90201BEE66268E36843
:1007B00002F1004203F1004345426260E360B4E6A7
:1007C00003239DE610A3D3E9002300F015FF10A337
:1007D000D3E9002306460F4600F00EFF02460B4603
:1007E0003046C4E90023394600F004FF08A3D3E9EA
:1007F000002300F001FF4FF0FF35C4E9020194E649
:10080000DDE906ABFAE600BF0000601A61B4D03D36
:100810007370032E8A19A33B0000002E8A19A33B94
:10082000C14920259A837B393163621A61B4D03D76
:10083000FB21F93F000000002DE9F04F21F00046B8
:10084000B6F1795F85B00C4692469B4605466BDA59
:1008500001F01EFB002800F0E7802A4623462846C8
:10086000214601F07BF874A3D3E900238046894632
:1008700001F074F872A3D3E9002300F0BDFE4246F4
:100880004B4601F06BF870A3D3E9002300F0B2FEF1
:1008900042464B4601F062F86DA3D3E9002300F015
:1008A000ABFE42464B4601F059F86BA3D3E9002357
:1008B00000F0A0FE42464B4601F050F868A3D3E991
:1008C000002300F099FE42464B4601F047F8CDE97F
:1008D00000010022644B4046494601F03FF8DDE943
:1008E000002306460F464046494601F037F8524677
:1008F000804689465B462846214601F02FF802468D
:100900000B464046494600F075FE02460B4630460F
:10091000394600F06FFE02460B460020534900F0B6
:1009200069FE05B0BDE8F08F02460B4601F016F8EF
:1009300041A3D3E900238046894601F00FF840A384
:10094000D3E9002300F058FE42464B4601F006F87A
:100950003DA3D3E9002300F04DFE42464B4600F094
:10096000FDFF3BA3D3E9002300F046FE42464B4681
:1009700000F0F4FF38A3D3E9002300F03BFE424629
:100980004B4600F0EBFF36A3D3E9002300F034FE22
:100990004B46424600F0E2FF354BCDE900019E4256
:1009A00097DD344B00229E4238DCA6F50013002070
:1009B0002E4916461F4600F01DFECDE90201002219
:1009C000294B4046494600F0C9FF32463B4600F0FD
:1009D00011FEDDE9002306460F464046494600F079
:1009E000BDFF5246804689465B462846214600F0B8
:1009F000B5FF02460B464046494600F0FBFD024665
:100A00000B463046394600F0F5FD02460B46DDE95F
:100A1000020100F0EFFD05B0BDE8F08F164B002697
:100A2000CDE90223154FCAE71049002005B0BDE803
:100A3000F08F00BFAFF30080D43888BEE9FAA8BDBC
:100A4000C4B1B4BD9EEE213EAD529C804F7E923E1D
:100A50009015CB19A001FA3E7751C1166CC1563FD3
:100A60004C5555555555A53F0000E03F0000F03F5F
:100A70003233D33F0000E93F0000E73F0000D23FA0
:100A80002DE9F04F794CADF51D7D1F460B93D31E1C
:100A900084FB0354DB17C3EBA403A69E744C23EA28
:100AA000E37554F826406B1C26460994A3EB830398
:100AB0007C1E0D95029402EBC3032D1B3419049088
:100AC0000A91089316D42C44013422AEA79F08E063
:100AD00057F8250000F0DCFE0135A542E6E90201E9
:100AE00008D0002DF4DA013500200021A542E6E906
:100AF0000201F6D1099B002B2FDB099B74AADDF8BC
:100B0000089002EBC30B0DF5E47A029B002BC0F2B8
:100B100095810B9B0026C3EB090824AB03EBC808A7
:100B2000049B0027A3F1080524AB03EBC904F5E9F6
:100B3000022374E8020100F011FF02460B46304622
:100B4000394600F059FD444506460F46EFD1EAE923
:100B50000267DA4509F10109D7D1099B10A91D46A1
:100B600003F18043023B9B001A1D0A440B440F9281
:100B70000E939CAB03EBC503002D53E928672BDDD7
:100B80009CAB03EBC504A83C0DF13C0A0DF5E47BDE
:100B90000022384B3046394600F0E0FE01F078F98B
:100BA00000F076FE0022344B8046894600F0D6FEE7
:100BB00002460B463046394600F01CFD01F068F94C
:100BC00074E802234AF8040F4946404600F014FD39
:100BD0005C4506460F46DBD1089C30463946224626
:100BE00000F08AFC00224FF07F5306460F4600F0CB
:100BF000B5FE00F0F9FB0022204B00F0AFFE0246EC
:100C00000B463046394600F0F5FC0F46064601F02B
:100C10003FF9814600F03CFE02460B46304639461D
:100C200000F0E8FC002C06460F4640F3EE80681EFC
:100C300010AB53F82030C4F1180243FA02F101FA64
:100C400002F29B1AC4F1170810AA42F82030894416
:100C500043FA08F8B8F1000F3DDD002D09F1010954
:100C600040F3D382002214460FA911E0ABAAAA2AAE
:100C7000004300080000703E00007041000020406A
:100C8000C3F180700BB108600124013295420DDD83
:100C900051F8043F002CF3D0C3F1FF13013203F5E8
:100CA0007F4395420B604FF00104F1DC089B002B61
:100CB0000DDD012B00F0B180022B08D16A1E10ABB4
:100CC00053F8223010A9C3F3150341F82230B8F1CC
:100CD000020F00F08180002200233046394601F0E7
:100CE000A5F8002800F05B82099B05F1FF3B5B45FE
:100CF00010DC05F1804310AA013B0F9802EB83033F
:100D0000002253F80419834242EA0102F9D1002A71
:100D100040F0B180099B10AA013B52F82330002B10
:100D200040F071820E9A012352F804190133002910
:100D3000FAD0E9186A1C8A420C914BDC0D990B9889
:100D40005118DB0001F180410593A79B054401394F
:100D5000E80003EB810A24ABD20003EB000B74AB79
:100D600013440193A2F10803069007934FF0000982
:100D70005AF8040F00F08CFD029BEBE80201002BF7
:100D80004FF000064FF000071BDB069B03EB090446
:100D9000079B09EB030824AB1C449844049BA3F174
:100DA0000805F5E9022374E8020100F0D7FD0246C8
:100DB0000B463046394600F01FFC444506460F46B8
:100DC000EFD1019B09F10809E3E802670193059B54
:100DD0009945CDD10C9DCCE632463B460020B0492A
:100DE00000F008FC06460F46002C3FF474AF089A4A
:100DF0000020AB4900F080FB02460B4630463946E6
:100E000000F0F8FB06460F4665E710D16B1E10AAEE
:100E100052F823304FEAE3581CE76A1E10AB53F830
:100E2000223010A9C3F3160341F822304FE7002205
:100E30009C4B01F019F858B980464CE70026002772
:100E4000EAE90267DA4509F101097FF45EAE84E65A
:100E5000002D09F10109C8BF4FF002083FF702AFAA
:100E600032463B4600208E4900F0C4FB4FF002089A
:100E700006460F462FE7089A10AB53F82B30183A66
:100E8000CDF81490CDF8048008926BB90BF1804333
:100E9000013B10A901EB830353F804190BF1FF3B4D
:100EA000183A0029F8D00892089A00207C4900F0EE
:100EB00023FBBBF1000F04460D46C0F2B6814FEA9A
:100EC000CB030DF5E87810AA02EB8B0608EB0309BB
:100ED0000493043609F1080756F8040D00F0D8FC15
:100EE00022462B4600F03AFD002267E902016E4BD4
:100EF0002046294600F032FDB84504460D46EBD1A8
:100F00004B46CDF818B09B460DF5987ACDF808A061
:100F1000DDF824A04FF00009BAF1000FC0F22681DD
:100F20005DA3D3E90023DFF884815D460026002716
:100F3000002403E0A14510DBF8E90223F5E80201F3
:100F400000F00CFD02460B463046394600F054FBDB
:100F50000134A24506460F46ECDA029BABF1080BC2
:100F600003EBC903C3E9006772AB5B4509F10109F3
:100F7000D2D1A69BDDF818B0DDF808A0032B00F253
:100F80008380DFE813F0D100950095000400BBF1E9
:100F9000000F40F35481049BCDF808B053449846A9
:100FA000D3E90067D34658E9029A32463B464846A1
:100FB000514600F021FB04460D4602460B464846CA
:100FC000514600F017FB32463B4600F015FBC8E9DE
:100FD000000168E90245C34526462F46E3D1DA46BB
:100FE000DDF808B0BBF1010F40F32981049B0DF53A
:100FF0009C7B53449846D3E90067994659E90234EB
:101000003046CDE902341A463946234600F0F4FA58
:1010100004460D4602460B46DDE9020100F0EAFAFD
:1010200032463B4600F0E8FAC9E9000169E90245A9
:10103000CB4526462F46E1D100231D4608F108087E
:1010400050AC184678E90223294600F0D5FA444509
:1010500003460D46F5D1019A002A00F0D880DAF84F
:101060000440DAF80C200A9FDAF80010DAF80800D9
:1010700005F1004504F1004402F100427D613B614D
:101080007C60FA603960B860059B03F007000DF5DD
:101090001D7DBDE8F08F00BF00000040FB21F93F3F
:1010A0000000F03F0000E03F0000703E10430008E9
:1010B00000242146049D0835554475E90223204645
:1010C00000F09AFA55450446F7D1019B002B50D009
:1010D0000A9F01F100450B46DAE9000187E830007C
:1010E000224600F087FABBF1000F03460D460DDDE6
:1010F00001241846FAE90223294600F07DFA01345A
:10110000A34503460D46F4DA019A0AB105F10045FC
:10111000184629460A9BC3E90201059B03F0070014
:101120000DF51D7DBDE8F08F00231C46049A0832A2
:10113000924418467AE90223214600F05DFA0BF149
:10114000FF3BBBF1FF3F03460C46F2D1019A0AB1C7
:1011500004F10044184621460A9BC3E90001059B9F
:1011600003F007000DF51D7DBDE8F08F0026002778
:10117000F3E626460F4622460A9C0B46DAE90001B2
:10118000C4E9006700F036FABBF1000F03460D46D4
:10119000AEDC184629460A9BC3E90201BDE7089B5D
:1011A00030465A423946CDF81490CDF8048000F00C
:1011B000A3F900222C4B06460F4600F055FE0028EE
:1011C00040D00022294B3046394600F0C7FB00F0E2
:1011D0005FFE044600F05CFB0022234B00F0BEFBE8
:1011E0000B4602463946304600F004FA00F050FE45
:1011F000089B05F1010B1833089310AB43F8250049
:1012000043F82B4050E6012393E500244EE51846B1
:10121000DAE90067DAE9022329460A9DC5E9006791
:10122000C5E90401C5E902232EE7A69B032B3FF67F
:101230002BAFDFE803F0151010020DF5987A0023AC
:101240001D4608E73046394600F022FE10ABAB469B
:1012500043F8250028E6002421460DF5987A34E766
:1012600000231C4672E700BF000070410000703E82
:101270002DE9F04F21F00046B6F1795F85B00C46BC
:1012800090469946054604DA00F002FE002800F078
:1012900085802A4623462846214600F05FFB064605
:1012A0000F4602460B462846214600F057FB3EA358
:1012B000D3E9002382468B463046394600F04EFB88
:1012C0003BA3D3E9002300F095F932463B4600F0FA
:1012D00045FB39A3D3E9002300F08EF932463B46A3
:1012E00000F03CFB36A3D3E9002300F083F932463B
:1012F0003B4600F033FB34A3D3E9002300F07CF934
:101300000E9BCDE900019BB30022334B404649467A
:1013100000F024FBDDE90023CDE9020150465946E7
:1013200000F01CFB02460B46DDE9020100F062F909
:1013300032463B4600F012FB42464B4600F05AF95B
:1013400023A3D3E9002306460F465046594600F032
:1013500005FB02460B463046394600F04DF9024681
:101360000B462846214600F045F905B0BDE8F08F50
:1013700002460B463046394600F0F0FA14A3D3E992
:10138000002300F037F952465B4600F0E7FA2A46A0
:10139000234600F031F905B0BDE8F08F284621461C
:1013A00005B0BDE8F08F00BF7CD5CF5A3AD9E53DF6
:1013B000EB9C2B8AE6E55A3E7DFEB157E31DC73E06
:1013C000D561C119A0012A3FA6F810111111813F62
:1013D000495555555555C53F0000E03F21F00041A6
:1013E000704700BF00000000C1F30A522DE9F84326
:1013F000A2F2FF36132E0B4604460D4688460746DA
:101400001CDC002E3FDB3A4A864642FA06F901EA26
:101410000902024317D034A3D3E9002300F0ECF80B
:101420000022002300F02AFD20B1002D40DB28EA35
:101430000905002738462946BDE8F883332E06DD26
:10144000B6F5806F2FD020461946BDE8F883A2F28A
:1014500013424FF0FF3929FA02F910EA090FF2D0CE
:1014600021A3D3E9002300F0C7F80022002300F0F5
:1014700005FD0028DED0002D20DB454627EA0907C0
:1014800038462946D8E718A3D3E9002300F0B4F87A
:101490000022002300F0F2FC0028CBD0002D18DB46
:1014A00000273D46C6E702460B4600F0A5F8CCE70C
:1014B0004FF4801343FA06F6B044B8E7142E10D068
:1014C0000123C6F1340603FA06F6371928BF9844FB
:1014D000D3E725F00042074B224318BF1D460027E3
:1014E000A8E705F10108C8E79C7500883CE4377E51
:1014F000FFFF0F000000F0BFF8B5C1F30A56044625
:101500000D460B46174606BB21F00043034325D08A
:1015100000222F4B00F022FA2E4A044697420D4635
:101520000B462ADBC1F30A56363E40F2FE723E44B9
:10153000964228DC002E12DD23F0FF4323F4E00363
:1015400043EA065520462946F8BD40F2FF7296420E
:10155000EBD102460B4600F04FF8F8BDF8BD16F18E
:10156000350F1DDA4CF250339F420CDC14A1D1E947
:10157000000122462B4600F031F811A3D3E90023E5
:1015800000F0ECF9F8BD22460FA1D1E900012B468D
:1015900000F024F80CA3D3E9002300F0DFF9F8BD34
:1015A00023F0FF4323F4E003363643EA0655204692
:1015B00029460022084B00F0D1F9F8BDAFF30080B6
:1015C00059F3F8C21F6EA5019C7500883CE4377E74
:1015D00000005043B03CFFFF0000903C03F000438C
:1015E00021F0004242EA0301704700BF81F0004150
:1015F00002E000BF83F0004330B54FEA41044FEAF8
:10160000430594EA050F08BF90EA020F1FBF54EA92
:10161000000C55EA020C7FEA645C7FEA655C00F02E
:10162000E2804FEA5454D4EB5555B8BF6D420CDDFF
:101630002C4480EA020281EA030382EA000083EA82
:10164000010180EA020281EA0303362D88BF30BD22
:1016500011F0004F4FEA01314FF4801C4CEA113178
:1016600002D0404261EB410113F0004F4FEA0333D7
:101670004CEA133302D0524263EB430394EA050F62
:1016800000F0A780A4F10104D5F1200E0DDB02FAD1
:101690000EFC22FA05F2801841F1000103FA0EF265
:1016A000801843FA05F359410EE0A5F120050EF12B
:1016B000200E012A03FA0EFC28BF4CF0020C43FA5C
:1016C00005F3C01851EBE37101F0004507D54FF069
:1016D000000EDCF1000C7EEB00006EEB0101B1F5B9
:1016E000801F1BD3B1F5001F0CD349085FEA3000FF
:1016F0004FEA3C0C04F101044FEA445212F5800F0A
:1017000080F09A80BCF1004F08BF5FEA500C50F1A6
:10171000000041EB045141EA050130BD5FEA4C0C89
:10172000404141EB010111F4801FA4F10104E9D112
:1017300091F0000F04BF01460020B1FA81F308BF09
:101740002033A3F10B03B3F120020CDA0C3208DDD5
:1017500002F1140CC2F10C0201FA0CF021FA02F1B0
:101760000CE002F11402D8BFC2F1200C01FA02F120
:1017700020FA0CFCDCBF41EA0C019040E41AA2BF45
:1017800001EB0451294330BD6FEA04041F3C1CDA0D
:101790000C340EDC04F11404C4F1200220FA04F02D
:1017A00001FA02F340EA030021FA04F345EA0301D7
:1017B00030BDC4F10C04C4F1200220FA02F001FA99
:1017C00004F340EA0300294630BD21FA04F029461B
:1017D00030BD94F0000F83F4801306BF81F48011B4
:1017E0000134013D4EE77FEA645C18BF7FEA655C27
:1017F00029D094EA050F08BF90EA020F05D054EAF9
:10180000000C04BF1946104630BD91EA030F1EBFFD
:101810000021002030BD5FEA545C05D14000494101
:1018200028BF41F0004130BD14F580043CBF01F5F4
:10183000801130BD01F0004545F0FE4141F47001DA
:101840004FF0000030BD7FEA645C1ABF19461046B5
:101850007FEA655C1CBF0B46024650EA013406BFB6
:1018600052EA033591EA030F41F4002130BD00BF75
:1018700090F0000F04BF0021704730B54FF4806432
:1018800004F132044FF000054FF0000150E700BFB3
:1018900090F0000F04BF0021704730B54FF4806412
:1018A00004F1320410F0004548BF40424FF00001FF
:1018B0003EE700BF42004FEAE2014FEA31014FEA42
:1018C00002701FBF12F07F4393F07F4F81F0605191
:1018D000704792F0000F14BF93F07F4F704730B500
:1018E0004FF4607401F0004521F0004120E700BF93
:1018F00050EA010208BF704730B54FF000050AE01A
:1019000050EA010208BF704730B511F0004502D51A
:10191000404261EB41014FF4806404F132045FEA1C
:10192000915C3FF4DCAE4FF003025FEADC0C18BFC1
:1019300003325FEADC0C18BF033202EBDC02C2F1B7
:10194000200300FA03FC20FA02F001FA03FE40EA49
:101950000E0021FA02F11444C1E600BF70B54FF049
:10196000FF0C4CF4E06C1CEA11541DBF1CEA13552B
:1019700094EA0C0F95EA0C0F00F0DEF82C4481EA93
:10198000030621EA4C5123EA4C5350EA013518BFB3
:1019900052EA033541F4801143F4801338D0A0FBA0
:1019A00002CE4FF00005E1FB02E506F00042E0FB4D
:1019B00003E54FF00006E1FB03569CF0000F18BF53
:1019C0004EF0010EA4F1FF04B6F5007F64F54074FB
:1019D00004D25FEA4E0E6D4146EB060642EAC6218E
:1019E00041EA55514FEAC52040EA5E504FEACE2EFB
:1019F000B4F1FD0C88BFBCF5E06F1ED8BEF1004FFE
:101A000008BF5FEA500E50F1000041EB045170BD79
:101A100006F0004646EA010140EA020081EA0301BD
:101A2000B4EB5C04C2BFD4EB0C0541EA045170BDB9
:101A300041F480114FF0000E013C00F3AB8014F133
:101A4000360FDEBF002001F0004170BDC4F100047C
:101A5000203C35DA0C341BDC04F11404C4F12005FD
:101A600000FA05F320FA04F001FA05F240EA020058
:101A700001F0004221F0004110EBD37021FA04F68E
:101A800042EB06015EEA430E08BF20EAD37070BD48
:101A9000C4F10C04C4F1200500FA04F320FA05F0A7
:101AA00001FA04F240EA020001F0004110EBD370A9
:101AB00041F100015EEA430E08BF20EAD37070BD19
:101AC000C4F1200500FA05F24EEA020E20FA04F3F2
:101AD00001FA05F243EA020321FA04F001F00041A1
:101AE00021FA04F220EA020000EBD3705EEA430E12
:101AF00008BF20EAD37070BD94F0000F0FD101F041
:101B00000046400041EB010111F4801F08BF013C79
:101B1000F7D041EA060195F0000F18BF704703F0B7
:101B20000046520043EB030313F4801F08BF013D3E
:101B3000F7D043EA0603704794EA0C0F0CEA1355FA
:101B400018BF95EA0C0F0CD050EA410618BF52EAB4
:101B50004306D1D181EA030101F000414FF00000BA
:101B600070BD50EA410606BF1046194652EA4306C8
:101B700019D094EA0C0F02D150EA013613D195EA3C
:101B80000C0F05D152EA03361CBF104619460AD184
:101B900081EA030101F0004141F0FE4141F470018E
:101BA0004FF0000070BD41F0FE4141F4780170BD7E
:101BB00070B54FF0FF0C4CF4E06C1CEA11541DBFE3
:101BC0001CEA135594EA0C0F95EA0C0F00F0A7F8E5
:101BD000A4EB050481EA030E52EA03354FEA013112
:101BE00000F088804FEA03334FF0805545EA131325
:101BF00043EA12634FEA022245EA111545EA1065ED
:101C00004FEA00260EF000419D4208BF964244F183
:101C1000FD0404F5407402D25B084FEA3202B61AA2
:101C200065EB03055B084FEA32024FF480104FF476
:101C3000002CB6EB020E75EB030E22BFB61A7546EA
:101C400040EA0C005B084FEA3202B6EB020E75EB7D
:101C5000030E22BFB61A754640EA5C005B084FEAE5
:101C60003202B6EB020E75EB030E22BFB61A7546B2
:101C700040EA9C005B084FEA3202B6EB020E75EBBD
:101C8000030E22BFB61A754640EADC0055EA060E7E
:101C900018D04FEA051545EA16754FEA06164FEAC1
:101CA000C30343EA52734FEAC2025FEA1C1CC0D16D
:101CB00011F4801F0BD141EA00014FF000004FF0FA
:101CC000004CB6E711F4801F04BF01430020B4F1BB
:101CD000FD0C88BFBCF5E06F3FF6AFAEB5EB030C73
:101CE00004BFB6EB020C5FEA500C50F1000041EB70
:101CF000045170BD0EF0004E4EEA113114EB5C043D
:101D0000C2BFD4EB0C0541EA045170BD41F480110F
:101D10004FF0000E013C90E645EA060E8DE60CEA17
:101D2000135594EA0C0F08BF95EA0C0F3FF43BAF34
:101D300094EA0C0F0AD150EA01347FF434AF95EAEB
:101D40000C0F7FF425AF104619462CE795EA0C0FCF
:101D500006D152EA03353FF4FDAE1046194622E79C
:101D600050EA410618BF52EA43067FF4C5AE50EA76
:101D700041047FF40DAF52EA43057FF4EBAE12E766
:101D80004FF0FF3C06E000BF4FF0010C02E000BF47
:101D90004FF0010C4DF804CD4FEA410C7FEA6C5C2A
:101DA0004FEA430C18BF7FEA6C5C1BD001B050EACD
:101DB000410C0CBF52EA430C91EA030F02BF90EAB8
:101DC000020F0020704710F1000F91EA030F58BF77
:101DD000994208BF90422CBFD8176FEAE37040F0D9
:101DE000010070474FEA410C7FEA6C5C02D150EA77
:101DF000013C07D14FEA430C7FEA6C5CD6D152EA32
:101E0000033CD3D05DF8040B704700BF84461046F6
:101E100062468C461946634600E000BF01B5FFF7F5
:101E2000B7FF002848BF10F1000F01BD4DF808EDC5
:101E3000FFF7F4FF0CBF012000205DF808FB00BF96
:101E40004DF808EDFFF7EAFF34BF012000205DF8F0
:101E500008FB00BF4DF808EDFFF7E0FF94BF01203D
:101E600000205DF808FB00BF4DF808EDFFF7CEFF3E
:101E700094BF012000205DF808FB00BF4DF808ED7D
:101E8000FFF7C4FF34BF012000205DF808FB00BF4E
:101E90004FEA410212F5001215D211D56FF4787392
:101EA000B3EB625212D94FEAC12343F0004343EA35
:101EB000505311F0004F23FA02F018BF4042704710
:101EC0004FF00000704750EA013005D111F000409A
:101ED00008BF6FF0004070474FF00000704700BF30
:101EE00010B586B0134B9A6942F010029A619A6954
:101EF00002F010020092009A9A6942F004029A617C
:101F00009B6903F004030193019B0B4C0022D82131
:101F1000204601F0ABF9D823029301230393002359
:101F200004930223059302A9204601F0A9F806B004
:101F300010BD00BF0010024000100140284A936904
:101F400043F001039361A2F58832536843F00073B4
:101F50005360244B5A6842F020025A605B6813F0C9
:101F6000200F3BD0204AD36843F08073D3601F4BCF
:101F700008221A610221C3F8F0104FF48172C3F8ED
:101F800004231B4AA3F57C331A604FF06043A2F18F
:101F90006952A2F5A212A2F6AC32C3F8B02F1548CE
:101FA000C3F8800E4FF0FF30C3F8000E03F5822314
:101FB000C3F8B02F1A6842F480621A604FF41962B5
:101FC0001A60C3F800124FF080725A629A621822A7
:101FD000DA6244F26F029A606F221A62704700BFA1
:101FE00000100240002004E0F0ED00E0000004E0FA
:101FF000011A01000D000100034B044A1A6302227A
:102000005A6303229A637047001000E02C000020FE
:102010000C22104B1A604FF06043D3F8803E13F04F
:10202000010F16D04FF06043D3F8003EC34013F0C9
:10203000010F0BD170474FF0604353F82030002B55
:10204000F9D001314FF0604303F820200A78002ACC
:10205000F1D170472C00002070B588B0002414E046
:102060002046FFF715FC28A3D3E90023FFF776FCF1
:1020700000224FF07F53FFF771FCFEF77BF9244BF2
:1020800003EB0413C3E900010134072CE8DD05204C
:1020900001F0BCFF1F4C00220821204601F0E6F8A9
:1020A000052001F0B3FF01220821204601F0DEF8EF
:1020B00000224021204601F0D9F80122402120468B
:1020C00001F0D4F8144D2B6823F480632B60104E7C
:1020D0003146684600F0F2F89DE80F0000F058F92C
:1020E00004AC3146204600F0E9F894E80F0000F017
:1020F000E7F92B6843F480632B6008490020FFF761
:1021000087FFC4E7AFF300801E264454FB2119402B
:10211000800D002000100140001004E05043000832
:1021200070B40D220D4B1A60012613E050F82340C5
:1021300003F18042013A50F82250AC4204DA40F8F0
:10214000235040F822400126013301E000260123FC
:102150008B42EBDB002EF9D170BC70472C000020C5
:1021600070B58AB0134C05AD26460FCE0FC5336847
:102170002B606D4614340FCC0FC523682B600A20EA
:1021800001F044FF0C4C00221021204601F06EF8B3
:102190000A2001F03BFF01221021204601F066F8E1
:1021A000052105A800F03EFA05216846FFF7B8FFB3
:1021B000E5E700BF104100080010014008B50268C3
:1021C000024B9A4201D100F005FC08BD0008004016
:1021D000FEE700BF00B591B0012206924FF48033B4
:1021E0000793002108910A9202220D920E934FF458
:1021F000E0130F9306A800F015FC20B14FF4AA716C
:102200001448FFF7E5FF0F230193022102910023F9
:1022100003934FF480620492059301A800F03AFE04
:1022200020B14FF4B1710B48FFF7D2FF00F0F4FE7C
:10223000094BA3FB0030800901F06EF8042001F087
:1022400081F800220F214FF0FF3001F027F811B084
:102250005DF804FB58430008D34D621070B58AB096
:1022600000F0A6FBFFF7B6FFFFF73AFEFFF766FEAA
:10227000FFF7C2FE0E4C05AD04F128060FCE0FC5C8
:1022800033682B60002105A801F0A6FE094B1860F9
:102290006D463C340FCC0FC523682B600021684687
:1022A00001F09AFE044B186001F090FEFEE700BFBB
:1022B00010410008000E0020480E0020F0B58646B0
:1022C0008C46002425461BE0A5420FDA0CEB0417D0
:1022D00097E80F008EE80F000CEB051696E80F004C
:1022E00087E80F009EE80F0086E80F00042303E054
:1022F000E41A03EBD3735B10A342F9DD1C440135F0
:10230000062DE1DD7046F0BD82B02DE9F04784B0C6
:1023100082460CA981E80C00DDE90C67DDE9103488
:10232000CDE900341A46234630463946FFF716FBFE
:10233000CDE90201DDE90E45DDE9128942464B4651
:1023400020462946FFF70AFB02460B46DDE902015B
:10235000FFF750F9CAE9000142464B46304639467C
:10236000FFF7FCFA06460F4622462B46DDE9000140
:10237000FFF7F4FA02460B4630463946FFF73CF9C0
:10238000CAE90201504604B0BDE8F04702B0704708
:102390002DE9F04F99B00CAC84E80F0001230B93AA
:1023A0007FE00B9B013B012202FA03F3079300231A
:1023B0000A936EE00B9CC4F103000A9D05FA00F03D
:1023C000FFF766FACDE908014FF0010B0BFA04FBA9
:1023D000AA4658E036A3D3E90023DDE90801FFF758
:1023E000BDFA00224FF07F53FFF7B8FA04460D46BE
:1023F000FDF778FFCDE9140120462946FDF7BAFF25
:10240000024601F10043CDE91623079B0AEB0305C1
:10241000294C04EB051502AE18AB13E90F0086E852
:102420000F0005F1080393E803008DE8030095E829
:102430000C0010A8FFF768FF04EB0A14DDE910890F
:1024400042464B46D4E90001FFF7D4F8C5E9000144
:10245000DDE9126732463B46D4E90201FFF7CAF8CC
:10246000C5E90201D4E9002340464946FFF7C4F814
:10247000C4E90001D4E9022330463946FFF7BCF82D
:10248000C4E90201DA44BAF1070FA3DD0A9B013364
:102490000A93079B013B0A9A9A428BDD0B9B0133FF
:1024A0000B930B9B032B7FF77CAF19B0BDE8F08F2C
:1024B0001E264454FB211940800D0020000000001E
:1024C0002DE9F04F99B00CAC84E80F0001230B9379
:1024D0007CE00B9B013B012202FA03F307930023EC
:1024E0000A936BE00B9CC4F103000A9D05FA00F00F
:1024F000FFF7CEF9CDE908014FF0010B0BFA04FB11
:10250000AA4655E036A3D3E90023DDE90801FFF729
:1025100025FA00224FF07F53FFF720FA04460D46BC
:10252000FDF7E0FECDE9140120462946FDF722FF24
:10253000CDE91601079B0AEB03052B4C04EB0515AF
:1025400002AE18AB13E90F0086E80F0005F108038F
:1025500093E803008DE8030095E80C0010A8FFF74E
:10256000D3FE04EB0A14DDE9108942464B46D4E958
:102570000001FFF73FF8C5E90001DDE912673246C7
:102580003B46D4E90201FFF735F8C5E90201D4E979
:10259000002340464946FFF72FF8C4E90001D4E97B
:1025A000022330463946FFF727F8C4E90201DA442E
:1025B000BAF1070FA6DD0A9B01330A93079B013B83
:1025C0000A9A9A428EDD0B9B01330B930B9B032BD4
:1025D0007FF77FAF19B0BDE8F08F00BFAFF3008089
:1025E0001E264454FB211940800D002030B40139CF
:1025F0004FF0FF3300240AE0631803EBD3735B1042
:1026000050F82350954201DD591E00E05C1C8C42BD
:10261000F2DD50F823108A4200DB0133184630BC4B
:10262000704700BFF8B504460F46012518E054F87E
:102630002560324629462046FFF7D8FF854209D15A
:102640000DE003F18042013A54F8222044F823209F
:10265000013B00E02B468342F3DC44F82360013564
:10266000BD42E4DBF8BD00BF704700BFFEE700BF1E
:10267000FEE700BFFEE700BFFEE700BF704700BFF8
:1026800008B501F0CBFC08BD08B5024800F06AF8B7
:1026900008BD00BF500E002000B583B0244B9A69DE
:1026A00042F001029A619A6902F001020092009AD6
:1026B000DA6942F08052DA61DB6903F080530193FA
:1026C000019B032000F0D8FD002211466FF00B00A3
:1026D00000F0E4FD002211466FF00A0000F0DEFD7C
:1026E000002211466FF0090000F0D8FD00221146CB
:1026F0006FF0040000F0D2FD002211466FF00300DD
:1027000000F0CCFD00220F216FF0010000F0C6FDAB
:1027100000220F214FF0FF3000F0C0FD054A536842
:1027200023F0E06343F00073536003B05DF804FBF3
:102730000010024000000140704700BF0268D368EB
:1027400043F00103D3600268136843F00103136090
:1027500000207047704700BF704700BF704700BF40
:10276000704700BF10B5044603681A6912F0020FE3
:1027700017D0DA6812F0020F13D06FF002021A615C
:102780000123037703689B6913F0030F02D0FFF75F
:10279000E3FF04E0FFF7DEFF2046FFF7DFFF002343
:1027A000237723681A6912F0040F19D0DA6812F03F
:1027B000040F15D06FF004021A61022323772368F7
:1027C0009B6913F4407F03D02046FFF7C5FF05E067
:1027D0002046FFF7BFFF2046FFF7C0FF0023237707
:1027E00023681A6912F0080F19D0DA6812F0080F7E
:1027F00015D06FF008021A61042323772368DB6980
:1028000013F0030F03D02046FFF7A6FF05E0204694
:10281000FFF7A0FF2046FFF7A1FF002323772368DF
:102820001A6912F0100F19D0DA6812F0100F15D0D3
:102830006FF010021A61082323772368DB6913F411
:10284000407F03D02046FFF787FF05E02046FFF7D3
:1028500081FF2046FFF782FF0023237723681A6950
:1028600012F0010F09D0DA6812F0010F05D06FF0F5
:1028700001021A612046FFF7A1FC23681A6912F0D1
:10288000800F09D0DA6812F0800F05D06FF0800257
:102890001A61204600F08AF823681A6912F0400F86
:1028A00009D0DA6812F0400F05D06FF040021A61CB
:1028B0002046FFF755FF23681A6912F0200F09D050
:1028C000DA6812F0200F05D06FF020021A6120465E
:1028D00000F06AF810BD00BF0368244A904212D08D
:1028E00002F5006290420ED0B0F1804F0BD0A2F5FD
:1028F0009832904207D002F58062904203D002F5F0
:102900008062904203D123F070034A681343174A50
:10291000904212D002F5006290420ED0B0F1804F8A
:102920000BD0A2F59832904207D002F58062904217
:1029300003D002F58062904203D123F44073CA6849
:10294000134323F080034A69134303608B68C36217
:102950000B688362054B984203D003F500639842ED
:1029600001D10B690363012343617047002C0140CF
:10297000B8B110B5044690F83D3013F0FF0F04D104
:10298000002380F83C30FFF7D7FE022384F83D3067
:10299000211D2068FFF7A0FF012384F83D300020AF
:1029A00010BD0120704700BF704700BF704700BFD7
:1029B00008B5074A136843F010031360032000F0C2
:1029C0005BFC002001F032FBFFF766FE002008BD33
:1029D00000200240034A1368034909780B4413603E
:1029E000704700BF4C0E002000000020014B18680B
:1029F000704700BF4C0E002082B0084B1B68084A8D
:102A0000A2FB03235B0A00FB03F0019000BF019BC4
:102A10005A1E0192002BF9D102B070470400002029
:102A2000D34D621070B582B00446036813F0010FF5
:102A30006BD0A84B5B6803F00C03042B0AD0A54BAA
:102A40005B6803F00C03082B0DD1A24B5B6813F4F9
:102A5000803F08D09F4B1B6813F4003F55D063683C
:102A6000002B52D1B8E16368B3F5803F05D1994A94
:102A7000136843F48033136026E063B903F18043A5
:102A800003F504331A6822F480321A601A6822F4BB
:102A900080221A6018E0B3F5A02F0CD103F1804317
:102AA000A3F53C331A6842F480221A601A6842F493
:102AB00080321A6008E0874B1A6822F480321A606C
:102AC0001A6822F480221A6063687BB1FFF78EFFD8
:102AD000054605E0FFF78AFF401B642800F27E816F
:102AE0007C4B1B6813F4003FF4D00EE0FFF77EFF31
:102AF000054605E0FFF77AFF401B642800F270816D
:102B0000744B1B6813F4003FF4D1236813F0020FD9
:102B100050D0704B5B6813F00C0F0AD06D4B5B68A4
:102B200003F00C03082B16D16A4B5B6813F4803F4B
:102B300011D1684B1B6813F0020F03D02369012BDE
:102B400040F05081634A136823F0F803616943EA57
:102B5000C10313602EE02369D3B101225E4B1A60DA
:102B6000FFF744FF054605E0FFF740FF401B022842
:102B700000F23A81574B1B6813F0020FF4D0554A0C
:102B8000136823F0F803616943EAC103136011E09D
:102B90000022514B1A60FFF729FF054605E0FFF7B9
:102BA00025FF401B022800F221814A4B1B6813F0CD
:102BB000020FF4D1236813F0080F29D0A369ABB139
:102BC0000122464B1A60FFF711FF054605E0FFF7AB
:102BD0000DFF401B022800F20B813E4B5B6A13F095
:102BE000020FF4D00120FFF707FF11E000223B4B5A
:102BF0001A60FFF7FBFE054605E0FFF7F7FE401BF6
:102C0000022800F2F780334B5B6A13F0020FF4D115
:102C1000236813F0040F00F089802E4BDB6913F05A
:102C2000805F0BD12B4BDA6942F08052DA61DB69AD
:102C300003F080530193019B012500E00025284B00
:102C40001B6813F4807F13D1254A136843F4807303
:102C50001360FFF7CBFE064605E0FFF7C7FE801BBB
:102C6000642800F2C9801E4B1B6813F4807FF4D0E7
:102C7000E368012B05D1174A136A43F0010313627D
:102C800022E063B903F1804303F504331A6A22F0AA
:102C900001021A621A6A22F004021A6214E0052B79
:102CA00009D10C4B1A6A42F004021A621A6A42F005
:102CB00001021A6208E0074B1A6A22F001021A6246
:102CC0001A6A22F004021A62E368CBB1FFF78EFEA3
:102CD00006460FE0001002400000424280044242DB
:102CE00000700040FFF782FE801B41F2883398425B
:102CF00000F28480494B1B6A13F0020FF2D00FE000
:102D0000FFF774FE064606E0FFF770FE801B41F2F7
:102D10008833984274D8414B1B6A13F0020FF3D1E9
:102D200025B13E4AD36923F08053D361E369002B78
:102D300068D03A4A526802F00C02082A64D0022B8A
:102D400037D10022364B1A60FFF750FE054604E0EB
:102D5000FFF74CFE401B022858D8304B1B6813F07D
:102D6000007FF5D1236AB3F5803F06D12B494B682C
:102D700023F40032A36813434B602848436823F4CC
:102D80007411236A626A13430B4343600122244B8C
:102D90001A60FFF72BFE044604E0FFF727FE001B36
:102DA000022835D81D4B1B6813F0007FF5D000209A
:102DB00031E000221A4B1A60FFF718FE044604E0C7
:102DC000FFF714FE001B022824D8144B1B6813F0D5
:102DD000007FF5D100201EE001201CE003201AE056
:102DE000032018E0012016E0032014E0032012E085
:102DF000032010E003200EE003200CE003200AE093
:102E0000032008E0002006E0012004E0032002E0A7
:102E1000032000E0032002B070BD00BF001002409C
:102E20006000424230B486B0164D02AC2868696832
:102E3000AA68EB680FC42B8AADF80430124B5B68AC
:102E400003F00C02082A19D1C3F3834206A90A44ED
:102E500012F8100C13F4803F0CD00B4B5B68C3F3DB
:102E600040430B4413F8142C084B03FB00F0B0FB59
:102E7000F2F004E0064B03FB00F000E0034806B06C
:102E800030BC7047604100080010024000127A0018
:102E900000093D0070B55C4B1B6803F007038B42D3
:102EA0000BD2594A136823F007030B4313601368CE
:102EB00003F00703994240F09780036813F0020F74
:102EC00006D0524C636823F0F002836813436360BA
:102ED0000D460446036813F0010F4DD04268012AE5
:102EE00005D14A4B1B6813F4003F0DD17EE0022A46
:102EF00005D1464B1B6813F0007F05D178E0434BAA
:102F00001B6813F0020F75D040494B6823F0030390
:102F100013434B60FFF76AFD06466368012B0ED131
:102F200006E0FFF763FD801B41F28833984263D8C7
:102F3000364B5B6803F00C03042BF2D11CE0022B30
:102F400015D106E0FFF752FD801B41F2883398420D
:102F500054D82E4B5B6803F00C03082BF2D10BE026
:102F6000FFF744FD801B41F28833984248D8274B35
:102F70005B6813F00C0FF3D1234B1B6803F00703BE
:102F80009D420AD2204A136823F007032B431360A3
:102F9000136803F007039D4234D1236813F0040F34
:102FA00006D01A494B6823F4E062E36813434B6090
:102FB000236813F0080F07D0144A536823F46053B2
:102FC000216943EAC1035360FFF72CFF0F4B5B6895
:102FD000C3F303130E4AD35CD8400E4B1860002095
:102FE00001F024F8002070BD012070BD012070BDEB
:102FF000012070BD012070BD032070BD032070BD95
:10300000032070BD012070BD00200240001002406E
:103010007C43000804000020014B1868704700BF83
:103020000400002008B5FFF7F7FF044B5B68C3F30B
:103030000223034AD35CD84008BD00BF0010024001
:103040008C4300080F2303600B4B5A6802F0030205
:1030500042605A6802F0F00282605A6802F4E0624C
:10306000C2605B68DB0803F4E0630361034B1B6829
:1030700003F007030B60704700100240002002407D
:10308000F0B583B000263446DFE00122A2400B6891
:1030900013409A4240F0D8804D68122D2DD00BD8A5
:1030A000022D27D003D85DB3012D1ED035E0032DAE
:1030B00030D0112D1BD030E0664FBD4220D008D853
:1030C000A7F58017BD421BD007F58037BD4224D13C
:1030D00016E0614FBD4213D007F58037BD420FD0D7
:1030E000A7F58017BD4218D10AE0CE6815E0CE687A
:1030F000043612E0CE6808360FE0CE680C360CE0DD
:103100008D684DB1012D02D10261082605E04261B2
:10311000082602E0002600E00426FF2B01D88646A0
:1031200001E000F1040EFF2B01D8A20002E0A4F19F
:1031300008029200DEF800700F25954027EA050589
:1031400006FA02F22A43CEF800204A6812F0805FA5
:103150007AD0424A956945F001059561926902F07D
:1031600001020192019AA708BD1C3D4A52F825E0D0
:1031700004F0030292000F2595402EEA050E394D0A
:10318000A84215D005F58065A84213D005F58065E5
:10319000A84211D005F58065A8420FD005F58065DD
:1031A000A8420DD005F58065A8420BD105250AE09F
:1031B000002508E0012506E0022504E0032502E0E1
:1031C000042500E0062505FA02F24EEA0202023763
:1031D000234D45F827204A6812F4803F05D005F5B5
:1031E00080652A681A432A6004E01F4D2A6822EA93
:1031F00003022A604A6812F4003F04D01A4D6A683C
:103200001A436A6004E0184D6A6822EA03026A60A1
:103210004A6812F4801F04D0134DAA681A43AA60AA
:1032200004E0114DAA6822EA0302AA604A6812F477
:10323000001F04D00C4DEA681343EB6004E00A4D14
:10324000EA6822EA0303EB6001340F2C7FF61DAF1E
:1032500003B0F0BD0000211000003110001002404A
:103260000000014000080140000401400AB1016172
:103270007047090401617047074AD36823F4E0638B
:103280001B041B0C000200F4E060184340F0BF6018
:1032900040F40030D060704700ED00E030B4164BD1
:1032A000DB68C3F30223C3F10704042C28BF042402
:1032B0001D1D062D01D9DD1E00E00025012303FAA6
:1032C00004F4013C2140A940AB40013B1A400A43B1
:1032D000002806DA00F00F001201D2B2074B1A5490
:1032E00007E01201D2B200F1604000F5614080F8C1
:1032F000002330BC704700BF00ED00E014ED00E09B
:10330000420900F01F00012303FA00F0014B43F8CB
:103310002200704700E100E00138B0F1807F0AD25E
:10332000064B5860F021064A82F82310002098606E
:1033300007221A6070470120704700BF10E000E0CC
:1033400000ED00E0042805D1054A136843F00403AA
:1033500013607047024A136823F004031360704738
:1033600010E000E00F4B1A6842F001021A60596841
:103370000D4A0A405A601A6822F0847222F48032A0
:103380001A601A6822F480221A605A6822F4FE0237
:103390005A604FF41F029A604FF00062034B9A602C
:1033A000704700BF001002400000FFF800ED00E091
:1033B000124A12F0070F07D0D11D21F00701C1F505
:1033C000406313440A4601E04FF440630C48026036
:1033D000002141601344083B23F0070309480360C0
:1033E00059601960991A51601360074B1960074BB7
:1033F00019604FF00042064B1A60704740000020F1
:103400003800002034000020440C00203000002050
:10341000400C0020124B00E013461A688242FBD396
:1034200010B45C681919884203D14168214459607D
:103430001846446801198A420CD10A4909688A422F
:1034400006D05268224442601A681268026002E0A4
:10345000016000E00260984200D0186010BC704724
:10346000380000203400002070B5044600F0D2FB84
:10347000394B1B680BB9FFF79BFF384B1B681C428D
:1034800053D194B1083414F0070F0ED024F0070480
:10349000083404F0070343B14FF0500383F311885D
:1034A000BFF36F8FBFF34F8FFEE7002C3FD02C4B45
:1034B0001B689C423DD82B4B1D6801E02B461546EE
:1034C0006A68944202D92A68002AF7D1224A12680F
:1034D000954230D01E6808362A681A606B681B1B3C
:1034E000102B10D9281910F0070F08D04FF05003F7
:1034F00083F31188BFF36F8FBFF34F8FFEE74360F5
:103500006C60FFF787FF6A6815490B689B1A0B60B0
:10351000154909688B4201D213490B600F4B1B6898
:103520001A436A6000232B6006E0002604E00026B0
:1035300002E0002600E0002600F006FC16F0070F6F
:1035400008D04FF0500383F31188BFF36F8FBFF3A0
:103550004F8FFEE7304670BD34000020400C002045
:103560003000002038000020440C0020A0B338B503
:103570000346A0F1080550F8042C1849096812EA1E
:10358000010408D14FF0500383F31188BFF36F8F0C
:10359000BFF34F8FFEE750F8080C40B14FF05003D7
:1035A00083F31188BFF36F8FBFF34F8FFEE794B1A2
:1035B00088B91C4622EA010243F8042C00F02AFBD9
:1035C00054F8043C064A11680B4413602846FFF780
:1035D00021FF00F0B9FB38BD704700BF400C002050
:1035E000300000200B4B1B68B3F1FF3F08D04FF0B9
:1035F000500383F31188BFF36F8FBFF34F8FFEE744
:103600004FF0500383F31188BFF36F8FBFF34F8FD9
:10361000FEE700BF0800002006480068006880F34D
:10362000088862B661B6BFF34F8FBFF36F8F00DFBC
:1036300000BF000008ED00E04FF0807340F8043C4C
:1036400021F0010140F8081C034B40F80C3C40F805
:10365000202C4038704700BFE5350008000000000E
:10366000074B19680868B0E8F00F80F30988BFF3CA
:103670006F8F4FF0000080F311884EF00D0E7047F1
:10368000100D00204FF0500383F31188BFF36F8FAC
:10369000BFF34F8F0A4A136801331360012B0DD11A
:1036A000084B1B6813F0FF0F08D04FF0500383F353
:1036B0001188BFF36F8FBFF34F8FFEE7704700BFD6
:1036C0000800002004ED00E0094B1B6843B94FF0EF
:1036D000500383F31188BFF36F8FBFF34F8FFEE763
:1036E000013B034A13600BB983F31188704700BF95
:1036F00008000020000000000000000000000000A2
:10370000EFF30980BFF36F8F0D4B1A6820E9F00FBC
:1037100010602DE908404FF0500080F3118800F050
:10372000F5FB4FF0000080F31188BDE808401968F0
:103730000868B0E8F00F80F30988BFF36F8F704717
:10374000100D002008B54FF0500383F31188BFF32C
:103750006F8FBFF34F8F00F065FA18B14FF08052B2
:10376000024B1A60002383F3118808BD04ED00E0CA
:10377000064B1B68064AA2FB03239B09013B054A33
:1037800013600722044B1A60704700BF040000203A
:10379000D34D621014E000E010E000E000B583B00B
:1037A0001F4B1A78D2B20192FF221A701B78DBB23B
:1037B0008DF803309DF8033003F05003194A13705D
:1037C0000722194B1A6009E0174A1368013B13607E
:1037D0009DF803305B00DBB28DF803309DF80330B9
:1037E00013F0800FF0D1104A13681B0203F4E0635A
:1037F0001360019BDBB20A4A13700C4B1A6842F447
:1038000070021A601A6842F070421A60FFF7B0FF47
:103810000022074B1A60FFF7FFFEFFF7E3FE00BF31
:1038200000E400E0480C00204C0C002020ED00E0FB
:103830000800002000F1080343604FF0FF3282606F
:10384000C360036100230360704700BF002303616E
:10385000704700BF43684B609A688A609A685160FD
:1038600099600861036801330360704730B40D68E4
:10387000B5F1FF3F01D1026907E000F1080200E065
:103880001A4653681C68A542FAD253684B60996087
:103890008A605160086103680133036030BC70477F
:1038A00003694268816891608268416851605A6822
:1038B000904201D182685A60002202611868013882
:1038C000186070470A4B1B681B680BB9012300E0A6
:1038D000002323B14FF0FF32064B1A607047044BB0
:1038E0001B68DB68DB685A68024B1A60704700BFD0
:1038F000540C0020300D002010B50446006BFFF77B
:1039000035FE2046FFF732FE10BD00BF2DE9F0471F
:1039100080469946089D099F0A9C236B02F18042CC
:10392000013A03EB820626F00706002306E0C85C96
:10393000E21882F83400CA5C12B101330F2BF6D9B9
:10394000002384F84330062D00D90625E56265641E
:103950004FF0000AC4F848A0201DFFF777FF04F1DC
:103960001800FFF773FF2461C5F10705A5616462C4
:10397000C4F84CA084F850A04A4641463046FFF7B0
:103980005BFE206007B13C60BDE8F08738B50024DD
:1039900007E004EB840293000E481844FFF74AFF47
:1039A0000134062CF5D90C4D2846FFF743FF0B4C8C
:1039B0002046FFF73FFF0A48FFF73CFF0948FFF7A3
:1039C00039FF0948FFF736FF084B1D60084B1C60A4
:1039D00038BD00BF780C0020380D00204C0D0020B1
:1039E000140D00205C0C0020600D0020540C002001
:1039F000700C002010B50446FFF744FE204A1368FF
:103A0000013313601F4B1B683BB91E4B1C601368CE
:103A1000012B0DD1FFF7BAFF0AE01B4B1B683BB926
:103A2000184B1B68DA6AE36A9A4201D8154B1C608E
:103A3000164A136801331360E36A012202FA03F1A4
:103A4000134802680A43026003EB83039A00211DB6
:103A500010481044FFF7FEFEFFF736FE0A4B1B68C6
:103A60006BB1084B1B68DA6AE36A9A4207D24FF0DF
:103A70008052094B1A60BFF34F8FBFF36F8F10BD99
:103A80000C0D0020100D0020580C0020340D0020DB
:103A9000740D0020780C002004ED00E070B50446A1
:103AA0000E461D4B1D681D4B18680430FFF7F8FECD
:103AB00050B91A4B1B68DA6A012303FA02F218495B
:103AC0000B6823EA02030B60B4F1FF3F07D136B164
:103AD000124B196804311348FFF7BCFE70BD2C442B
:103AE0000E4B1B685C60A54207D90F4B18680B4B47
:103AF00019680431FFF7BAFE70BD0C4B1868074B0C
:103B000019680431FFF7B2FE094B1B689C4201D2D1
:103B1000074B1C6070BD00BF2C0D0020100D002055
:103B2000740D0020600D0020700C0020540C00204B
:103B3000300D00202DE9F04385B006460F461546AE
:103B400098469000FFF790FC60B181465420FFF743
:103B50008BFC044610B1C0F8309004E04846FFF7F3
:103B600005FD00E000248CB10023039302940D9B1B
:103B700001930C9B009343462A4639463046FFF793
:103B8000C5FE2046FFF736FF012001E04FF0FF3071
:103B900005B0BDE8F08300BF00B583B0174B0193BB
:103BA00000230093802216491648FFF7C3FF01281F
:103BB00014D14FF0500383F31188BFF36F8FBFF31D
:103BC0004F8F4FF0FF32104B1A6001220F4B1A60DB
:103BD00000220F4B1A60FFF7E1FD0BE0B0F1FF3F51
:103BE00008D14FF0500383F31188BFF36F8FBFF3F9
:103BF0004F8FFEE703B05DF804FB00BF280D0020E7
:103C000094430008E53E0008300D0020580C0020C9
:103C10002C0D0020024A136801331360704700BF67
:103C2000040D0020F8B53D4B1B68002B69D13C4BBF
:103C30001D6801351D60C5B93A4B1B681B6843B14F
:103C40004FF0500383F31188BFF36F8FBFF34F8F93
:103C5000FEE7344A1168344B186810601960334A23
:103C6000136801331360FFF72DFE314B1B689D4233
:103C700003D200243AE0012400E00024294B1B6811
:103C80001B680BB9012300E0002323B14FF0FF3282
:103C9000274B1A602AE0234B1B68DB68DE687368D9
:103CA0009D4202D2224A136020E0371D3846FFF7BA
:103CB000F7FDB36A1BB106F11800FFF7F1FDF36AD7
:103CC000012202FA03F11B4802680A43026003EB77
:103CD00083039A00394618481044FFF7BBFDF26A87
:103CE000164B1B68DB6A9A42C5D2C7E7134B1B68A9
:103CF000DB6A03EB83039A000F4B9B58012B06D81A
:103D000006E00F4A136801331360002400E0012429
:103D10000C4B1B6803B101242046F8BD040D0020A4
:103D20002C0D0020540C0020700C0020500C0020A2
:103D3000300D0020740D0020780C0020100D0020A4
:103D4000740C0020780D002038B5344B1B6843B943
:103D50004FF0500383F31188BFF36F8FBFF34F8F82
:103D6000FEE7FFF78FFC2D4B1A68013A1A601B68BB
:103D7000002B4CD12A4B1B6833BB00244AE0294B53
:103D8000DB68DC6804F11800FFF78AFD251D284672
:103D9000FFF786FDE36A012202FA03F12248026876
:103DA0000A43026003EB83039A0029461F4810442C
:103DB000FFF750FDE26A1E4B1B68DB6A9A4204D390
:103DC00001221C4B1A6000E00024164B1B68002BDC
:103DD000D5D10CB1FFF776FD174B1C6854B1FFF736
:103DE00021FF10B10122134B1A60013CF7D10022D0
:103DF000114B1A600F4B1B685BB14FF080520F4B99
:103E00001A60BFF34F8FBFF36F8F012402E00024CD
:103E100000E00024FFF758FC204638BD040D0020C8
:103E20000C0D0020140D0020740D0020780C0020D3
:103E3000100D0020780D0020740C002004ED00E02F
:103E400010B5A8B10446104B1B6843B14FF05003A6
:103E500083F31188BFF36F8FBFF34F8FFEE7FFF738
:103E6000D9FE00212046FFF719FEFFF76DFF00E0A5
:103E7000002038B94FF08052044B1A60BFF34F8FC7
:103E8000BFF36F8F10BD00BF040D002004ED00E0F4
:103E900010B51BE0FFF7BEFE0F4B1C68FFF754FF89
:103EA000A4B1FFF7EFFB0C4BDB68DC68201DFFF7CC
:103EB000F7FC0A4A1368013B1360094A1368013B87
:103EC0001360FFF701FC2046FFF716FD044B1B684B
:103ED000002BDFD110BD00BF5C0C00200C0D0020BA
:103EE000080D002008B5FFF7D3FF064B1B68012B18
:103EF000F9D94FF08052044B1A60BFF34F8FBFF3D4
:103F00006F8FF0E7780C002004ED00E01F4B1B687A
:103F10001BB101221E4B1A60704700221C4B1A6015
:103F20001C4B1B68B3FA83F3DBB2C3F11F0303EB33
:103F300083018A0018498A5842B94FF0500383F32D
:103F40001188BFF36F8FBFF34F8FFEE730B4124D70
:103F50009900CA1890002844426854684460194483
:103F60008A0008322A44944205D1606803EB830139
:103F70008A002A44506003EB83039A00064B1A44DC
:103F80005368DA68054B1A6030BC7047040D002096
:103F9000780D0020740D0020780C0020100D0020FA
:103FA000054B1B6823B1054B1B681BB902207047EA
:103FB0000120704700207047580C0020040D00209D
:103FC000842801D0033070470020704708B5FFF700
:103FD000E3FD002008BD00BFF0B585B00F46446882
:103FE00005680669B0F90800FFF7EAFF03AB019323
:103FF00000903B46B2B229462046FFF79BFD0128C0
:1040000001D1039800E0002005B0F0BD08B508B963
:104010000120FFE7FFF714FF002008BD08B5FFF7F8
:10402000BFFF012801D0FFF78DFB08BD00B589B0A7
:10403000002201461E20FFF731F91E20FFF760F92C
:10404000154BDA6942F00402DA61DB6903F004031C
:104050000193019B02A903A8FEF7F4FFFEF7E2FF1C
:1040600040000E4BA3FB00239B0C013B0C480D4A68
:10407000026040F2E732C260436000230361836064
:10408000FEF776FC18B90648FEF758FB00E0012061
:1040900009B05DF804FB00BF0010024083DE1B4343
:1040A000500E002000080040002103E00B4B5B583D
:1040B000435004310A480B4B42189A42F6D30A4A3D
:1040C00002E0002342F8043B084B9A42F9D3FFF781
:1040D00049F9FCF7DFF8FEF7C1F87047A443000880
:1040E000000000200C00002010000020900E002096
:1040F000FEE70000F8B500BFF8BC08BC9E4670475C
:0C410000F8B500BFF8BC08BC9E46704734
:104110002300000002000000EB0000000B00000084
:10412000020000001E00000001000000D600000098
:104130000A00000008000000704300085920000831
:104140000000000000000000800000006443000840
:104150006121000800000000000000008000000055
:1041600002030405060708090A0B0C0D0E0F1010B8
:1041700001020000FB21F93FFB2109407CD91240DC
:10418000FB2119407A6A1F407CD92240BBFD2540A3
:10419000FB2129403A462C407A6A2F405C47314047
:1041A0007CD932409C6B3440BBFD3540DB8F3740BF
:1041B000FB2139401BB43A403A463C405AD83D4076
:1041C0007A6A3F404C7E40405C4741406C10424020
:1041D0007CD942408CA243409C6B4440AC34454067
:1041E000BBFD4540CBC64640DB8F4740EB584840BF
:1041F000FB21494083F9A200444E6E00FC291500C2
:10420000D1572700DD34F50062DBC0003C999500F2
:10421000419043006351FE00BBDEAB00B761C500B7
:104220003A6E2400D24D42004906E00009EA2E0011
:104230001C92D100EB1DFE0029B11C00E83EA70036
:10424000F535820044BB2E009CE98400B426700042
:10425000417E5F00D6913900538339009CF43900C8
:104260008B5F840028F9BD00F81F3B00DEFF97003C
:104270000F980500112FEF000A5A8B006D1F6D007B
:10428000CF7E360009CB2700464FB7009E663F0021
:104290002DEA5F00BA277500E5EBC7003D7BF10012
:1042A000F739070092528A00FB6BEA001FB15F00EA
:1042B000085D8D00300356007BFC4600F0AB6B00C0
:1042C00020BCCF0036F49A00E3A91D005E61910086
:1042D000081BE60085996500A0145F008D4068000A
:1042E00080D8FF0027734D0006063100CA5615001E
:1042F000C9A873007BE260006B8CC0000000000066
:10430000020000000300000004000000060000009E
:1043100000000040FB21F93F000000002D44743EE6
:10432000000000809846F83C0000006051CC783BCB
:1043300000000080831BF0390000004020257A38FF
:10434000000000802282E336000000001DF3693582
:104350004C454430000000005372632F6D61696E5C
:104360002E6300005461736B5F4C454431000000C4
:104370005461736B5F4C4544300000000000000046
:104380000000000001020304060708090000000005
:0C4390000102030449444C4500000000F9
:04439C005D020008B6
:0443A00035020008DA
:0C43A4000100000000A24A04AAAAAAAA74
:04000005080040A906
:00000001FF
