:020000040800F2
:100000000000012089200008450600084906000874
:100010004D060008510600085506000800000000C3
:100020000000000000000000000000004116000871
:100030005906000800000000E11600085D060008EF
:10004000D1200008D1200008D1200008D1200008CC
:10005000D1200008D1200008D1200008D1200008BC
:10006000D1200008D1200008D1200008D1200008AC
:10007000D1200008D1200008D1200008D12000089C
:10008000D1200008D1200008D1200008D12000088C
:10009000D1200008D1200008D1200008D12000087C
:1000A000D1200008D1200008D1200008D12000086C
:1000B000D1200008D120000865060008D1200008E2
:1000C000D1200008D1200008D1200008D12000084C
:1000D000D1200008D1200008D1200008D12000083C
:1000E000D1200008D1200008D1200008D12000082C
:1000F000D1200008D1200008D1200008D12000081C
:10010000D1200008D1200008D1200008D12000080B
:10011000D1200008D1200008D1200008D1200008FB
:10012000D1200008D1200008D1200008D1200008EB
:1001300000000000000000000000000000000000BF
:1001400000000000000000000000000000000000AF
:10015000000000000000000000000000000000009F
:10016000000000000000000000000000000000008F
:10017000000000000000000000000000000000007F
:10018000000000000000000000000000000000006F
:10019000000000000000000000000000000000005F
:1001A000000000000000000000000000000000004F
:1001B000000000000000000000000000000000003F
:1001C000000000000000000000000000000000002F
:1001D000000000000000000000000000000000001F
:0401E0005FF8E0F1F3
:1001F000044B05481B1A062B02D9044B03B11847C0
:10020000704700BF0F0000200C000020000000001D
:1002100005490648091A891001EBD171491002D02D
:10022000034B03B1184770470C0000200C0000205E
:100230000000000010B5064C237843B9FFF7D8FF43
:10024000044B13B10448AFF300800123237010BDA9
:100250000C00002000000000D420000808B5084B66
:100260001BB108490848AFF300800848036813B978
:10027000BDE80840CCE7064B002BF9D09847F7E7DC
:100280000000000010000020D42000080C00002016
:100290000000000070B50F4E0F4D761BB61018BF52
:1002A000002405D0013455F8043B9847A642F9D103
:1002B0000A4E0B4D01F00EFF761BB61018BF00243E
:1002C00006D0013455F8043B9847A642F9D170BDD9
:1002D00070BD00BF88210008882100088C2100081B
:1002E0008821000810B586B0134B9A6942F01002BD
:1002F0009A619A6902F010020092009A9A6942F09B
:1003000004029A619B6903F004030193019B0B4C67
:100310000022D821204600F097FFD8230293012322
:100320000393002304930223059302A9204600F0BF
:1003300095FE06B010BD00BF001002400010014045
:10034000284A936943F001039361A2F58832536808
:1003500043F000735360244B5A6842F020025A6005
:100360005B6813F0200F3BD0204AD36843F08073C2
:10037000D3601F4B08221A610221C3F8F0104FF41A
:100380008172C3F804231B4AA3F57C331A604FF033
:100390006043A2F16952A2F5A212A2F6AC32C3F8F0
:1003A000B02F1548C3F8800E4FF0FF30C3F8000E91
:1003B00003F58223C3F8B02F1A6842F480621A60F2
:1003C0004FF419621A60C3F800124FF080725A623B
:1003D0009A621822DA6244F26F029A606F221A62FD
:1003E000704700BF00100240002004E0F0ED00E084
:1003F000000004E0011A01000D000100034B044A53
:100400001A6302225A6303229A637047001000E0C5
:10041000280000200C22104B1A604FF06043D3F8E4
:10042000803E13F0010F16D04FF06043D3F8003E2A
:10043000C34013F0010F0BD170474FF0604353F8E6
:100440002030002BF9D001314FF0604303F8202019
:100450000A78002AF1D170472800002008B50F2043
:1004600001F0C4FD0E4C00220821204600F0ECFEF5
:100470000F2001F0BBFD01220821204600F0E4FE20
:1004800000224021204600F0DFFE012240212046CC
:1004900000F0DAFE03490020FFF7BCFFDFE700BFF2
:1004A000001001403C21000870B40D220D4B1A6071
:1004B000012613E050F8234003F18042013A50F83E
:1004C0002250AC4204DA40F8235040F82240012682
:1004D000013301E0002601238B42EBDB002EF9D132
:1004E00070BC70472800002030B587B001AC124DB9
:1004F0000FCD0FC42B6823600A2001F077FD0F4C4D
:1005000000221021204600F09FFE0A2001F06EFD1F
:1005100001221021204600F097FE094C236823F4A5
:1005200080632360052101A8FFF7BEFF236843F421
:1005300080632360E0E700BFEC200008001001406A
:10054000001004E008B50268024B9A4201D100F0A5
:100550002FFA08BD00080040FEE700BF00B591B0CB
:10056000012206924FF480330793002108910A92EA
:1005700002220D920E934FF4E0130F9306A800F0A1
:100580003FFA20B140F24F111448FFF7E5FF0F2367
:10059000019302210291002303934FF4806204929D
:1005A000059301A800F064FC20B140F25D110B48F6
:1005B000FFF7D2FF00F01EFD094BA3FB00308009BE
:1005C00000F098FE042000F0ABFE00220F214FF057
:1005D000FF3000F051FE11B05DF804FB442100082B
:1005E000D34D621070B58AB000F0D0F9FFF7B6FFB6
:1005F000FFF778FEFFF7A4FEFFF700FF0E4C05ADF6
:1006000004F114060FCE0FC533682B60002105A836
:1006100001F0D2FC094B18606D4628340FCC0FC591
:1006200023682B600021684601F0C6FC044B18606B
:1006300001F0BCFCFEE700BFEC200008780D0020B4
:100640007C0D0020704700BFFEE700BFFEE700BF43
:10065000FEE700BFFEE700BF704700BF08B501F02E
:10066000CDFC08BD08B5024800F06AF808BD00BF1F
:10067000840D002000B583B0244B9A6942F001023A
:100680009A619A6902F001020092009ADA6942F0D6
:100690008052DA61DB6903F080530193019B0320F0
:1006A00000F0D8FD002211466FF00B0000F0E4FDD1
:1006B000002211466FF00A0000F0DEFD0022114614
:1006C0006FF0090000F0D8FD002211466FF0040021
:1006D00000F0D2FD002211466FF0030000F0CCFDC7
:1006E00000220F216FF0010000F0C6FD00220F2153
:1006F0004FF0FF3000F0C0FD054A536823F0E0637F
:1007000043F00073536003B05DF804FB0010024037
:1007100000000140704700BF0268D36843F0010346
:10072000D3600268136843F0010313600020704730
:10073000704700BF704700BF704700BF704700BFE1
:1007400010B5044603681A6912F0020F17D0DA6870
:1007500012F0020F13D06FF002021A610123037727
:1007600003689B6913F0030F02D0FFF7E3FF04E077
:10077000FFF7DEFF2046FFF7DFFF00232377236824
:100780001A6912F0040F19D0DA6812F0040F15D0AC
:100790006FF004021A610223237723689B6913F424
:1007A000407F03D02046FFF7C5FF05E02046FFF756
:1007B000BFFF2046FFF7C0FF0023237723681A6995
:1007C00012F0080F19D0DA6812F0080F15D06FF088
:1007D00008021A61042323772368DB6913F0030FEF
:1007E00003D02046FFF7A6FF05E02046FFF7A0FF55
:1007F0002046FFF7A1FF0023237723681A6912F030
:10080000100F19D0DA6812F0100F15D06FF0100227
:100810001A61082323772368DB6913F4407F03D030
:100820002046FFF787FF05E02046FFF781FF2046BF
:10083000FFF782FF0023237723681A6912F0010F64
:1008400009D0DA6812F0010F05D06FF001021A61C9
:100850002046FFF777FE23681A6912F0800F09D04F
:10086000DA6812F0800F05D06FF080021A6120461E
:1008700000F08AF823681A6912F0400F09D0DA688C
:1008800012F0400F05D06FF040021A612046FFF7CA
:1008900055FF23681A6912F0200F09D0DA6812F0A8
:1008A000200F05D06FF020021A61204600F06AF890
:1008B00010BD00BF0368244A904212D002F50062C6
:1008C00090420ED0B0F1804F0BD0A2F598329042FA
:1008D00007D002F58062904203D002F58062904218
:1008E00003D123F070034A681343174A904212D091
:1008F00002F5006290420ED0B0F1804F0BD0A2F50D
:100900009832904207D002F58062904203D002F5FF
:100910008062904203D123F44073CA68134323F0EA
:1009200080034A69134303608B68C3620B68836268
:10093000054B984203D003F50063984201D10B693F
:100940000363012343617047002C0140B8B110B527
:10095000044690F83D3013F0FF0F04D1002380F8D7
:100960003C30FFF7D7FE022384F83D30211D20687C
:10097000FFF7A0FF012384F83D30002010BD0120C7
:10098000704700BF704700BF704700BF08B5074AF7
:10099000136843F010031360032000F05BFC002099
:1009A00001F034FBFFF766FE002008BD0020024086
:1009B000034A1368034909780B441360704700BF6A
:1009C000800D002000000020014B1868704700BF18
:1009D000800D002082B0084B1B68084AA2FB03234D
:1009E0005B0A00FB03F0019000BF019B5A1E0192BD
:1009F000002BF9D102B0704704000020D34D6210E3
:100A000070B582B00446036813F0010F6BD0A84B99
:100A10005B6803F00C03042B0AD0A54B5B6803F062
:100A20000C03082B0DD1A24B5B6813F4803F08D058
:100A30009F4B1B6813F4003F55D06368002B52D1C5
:100A4000B8E16368B3F5803F05D1994A136843F470
:100A50008033136026E063B903F1804303F5043368
:100A60001A6822F480321A601A6822F480221A600E
:100A700018E0B3F5A02F0CD103F18043A3F53C336C
:100A80001A6842F480221A601A6842F480321A60AE
:100A900008E0874B1A6822F480321A601A6822F440
:100AA00080221A6063687BB1FFF78EFF054605E080
:100AB000FFF78AFF401B642800F27E817C4B1B6895
:100AC00013F4003FF4D00EE0FFF77EFF054605E08B
:100AD000FFF77AFF401B642800F27081744B1B689B
:100AE00013F4003FF4D1236813F0020F50D0704B81
:100AF0005B6813F00C0F0AD06D4B5B6803F00C03BE
:100B0000082B16D16A4B5B6813F4803F11D1684BF8
:100B10001B6813F0020F03D02369012B40F05081B2
:100B2000634A136823F0F803616943EAC103136061
:100B30002EE02369D3B101225E4B1A60FFF744FF18
:100B4000054605E0FFF740FF401B022800F23A810E
:100B5000574B1B6813F0020FF4D0554A136823F06B
:100B6000F803616943EAC103136011E00022514BAD
:100B70001A60FFF729FF054605E0FFF725FF401B38
:100B8000022800F221814A4B1B6813F0020FF4D1B6
:100B9000236813F0080F29D0A369ABB10122464B9B
:100BA0001A60FFF711FF054605E0FFF70DFF401B38
:100BB000022800F20B813E4B5B6A13F0020FF4D067
:100BC0000120FFF707FF11E000223B4B1A60FFF7FF
:100BD000FBFE054605E0FFF7F7FE401B022800F28A
:100BE000F780334B5B6A13F0020FF4D1236813F0E4
:100BF000040F00F089802E4BDB6913F0805F0BD16E
:100C00002B4BDA6942F08052DA61DB6903F08053E2
:100C10000193019B012500E00025284B1B6813F47C
:100C2000807F13D1254A136843F480731360FFF764
:100C3000CBFE064605E0FFF7C7FE801B642800F2E6
:100C4000C9801E4B1B6813F4807FF4D0E368012B2E
:100C500005D1174A136A43F00103136222E063B916
:100C600003F1804303F504331A6A22F001021A6289
:100C70001A6A22F004021A6214E0052B09D10C4B07
:100C80001A6A42F004021A621A6A42F001021A62F7
:100C900008E0074B1A6A22F001021A621A6A22F06F
:100CA00004021A62E368CBB1FFF78EFE06460FE03E
:100CB00000100240000042428004424200700040A6
:100CC000FFF782FE801B41F28833984200F2848055
:100CD000494B1B6A13F0020FF2D00FE0FFF774FECE
:100CE000064606E0FFF770FE801B41F2883398420B
:100CF00074D8414B1B6A13F0020FF3D125B13E4A61
:100D0000D36923F08053D361E369002B68D03A4A5A
:100D1000526802F00C02082A64D0022B37D100225C
:100D2000364B1A60FFF750FE054604E0FFF74CFE15
:100D3000401B022858D8304B1B6813F0007FF5D1B8
:100D4000236AB3F5803F06D12B494B6823F4003268
:100D5000A36813434B602848436823F47411236A43
:100D6000626A13430B4343600122244B1A60FFF76E
:100D70002BFE044604E0FFF727FE001B022835D8AF
:100D80001D4B1B6813F0007FF5D0002031E00022DE
:100D90001A4B1A60FFF718FE044604E0FFF714FE32
:100DA000001B022824D8144B1B6813F0007FF5D1D8
:100DB00000201EE001201CE003201AE0032018E0C0
:100DC000012016E0032014E0032012E0032010E0CD
:100DD00003200EE003200CE003200AE0032008E0DB
:100DE000002006E0012004E0032002E0032000E0F0
:100DF000032002B070BD00BF0010024060004242FC
:100E000030B486B0164D02AC28686968AA68EB68F1
:100E10000FC42B8AADF80430124B5B6803F00C0250
:100E2000082A19D1C3F3834206A90A4412F8100C08
:100E300013F4803F0CD00B4B5B68C3F340430B446F
:100E400013F8142C084B03FB00F0B0FBF2F004E0A5
:100E5000064B03FB00F000E0034806B030BC7047CF
:100E6000282100080010024000127A0000093D000D
:100E700070B55C4B1B6803F007038B420BD2594AD9
:100E8000136823F007030B431360136803F0070391
:100E9000994240F09780036813F0020F06D0524C3D
:100EA000636823F0F0028368134363600D460446D1
:100EB000036813F0010F4DD04268012A05D14A4B57
:100EC0001B6813F4003F0DD17EE0022A05D1464B8A
:100ED0001B6813F0007F05D178E0434B1B6813F0CB
:100EE000020F75D040494B6823F0030313434B6056
:100EF000FFF76AFD06466368012B0ED106E0FFF797
:100F000063FD801B41F28833984263D8364B5B689F
:100F100003F00C03042BF2D11CE0022B15D106E0E8
:100F2000FFF752FD801B41F28833984254D82E4B74
:100F30005B6803F00C03082BF2D10BE0FFF744FDD4
:100F4000801B41F28833984248D8274B5B6813F0E6
:100F50000C0FF3D1234B1B6803F007039D420AD209
:100F6000204A136823F007032B431360136803F030
:100F700007039D4234D1236813F0040F06D01A49A9
:100F80004B6823F4E062E36813434B60236813F07B
:100F9000080F07D0144A536823F46053216943EAC9
:100FA000C1035360FFF72CFF0F4B5B68C3F30313C0
:100FB0000E4AD35CD8400E4B1860002001F026F892
:100FC000002070BD012070BD012070BD012070BDEA
:100FD000012070BD032070BD032070BD032070BDD3
:100FE000012070BD0020024000100240682100086E
:100FF00004000020014B1868704700BF0400002067
:1010000008B5FFF7F7FF044B5B68C3F30223034AFD
:10101000D35CD84008BD00BF001002407821000812
:101020000F2303600B4B5A6802F0030242605A68B8
:1010300002F0F00282605A6802F4E062C2605B680B
:10104000DB0803F4E0630361034B1B6803F0070351
:101050000B6070470010024000200240F0B583B0E2
:1010600000263446DFE00122A2400B6813409A427A
:1010700040F0D8804D68122D2DD00BD8022D27D0EE
:1010800003D85DB3012D1ED035E0032D30D0112DD6
:101090001BD030E0664FBD4220D008D8A7F580179E
:1010A000BD421BD007F58037BD4224D116E0614F09
:1010B000BD4213D007F58037BD420FD0A7F580178A
:1010C000BD4218D10AE0CE6815E0CE68043612E0C1
:1010D000CE6808360FE0CE680C360CE08D684DB156
:1010E000012D02D10261082605E04261082602E0D6
:1010F000002600E00426FF2B01D8864601E000F11F
:10110000040EFF2B01D8A20002E0A4F10802920015
:10111000DEF800700F25954027EA050506FA02F271
:101120002A43CEF800204A6812F0805F7AD0424A03
:10113000956945F001059561926902F001020192FD
:10114000019AA708BD1C3D4A52F825E004F00302AD
:1011500092000F2595402EEA050E394DA84215D074
:1011600005F58065A84213D005F58065A84211D029
:1011700005F58065A8420FD005F58065A8420DD021
:1011800005F58065A8420BD105250AE0002508E099
:10119000012506E0022504E0032502E0042500E025
:1011A000062505FA02F24EEA02020237234D45F8FF
:1011B00027204A6812F4803F05D005F580652A682B
:1011C0001A432A6004E01F4D2A6822EA03022A60BB
:1011D0004A6812F4003F04D01A4D6A681A436A60E4
:1011E00004E0184D6A6822EA03026A604A6812F451
:1011F000801F04D0134DAA681A43AA6004E0114D61
:10120000AA6822EA0302AA604A6812F4001F04D006
:101210000C4DEA681343EB6004E00A4DEA6822EAE9
:101220000303EB6001340F2C7FF61DAF03B0F0BD5C
:1012300000002110000031100010024000000140A9
:1012400000080140000401400AB10161704709042F
:1012500001617047074AD36823F4E0631B041B0C49
:10126000000200F4E060184340F0BF6040F400303A
:10127000D060704700ED00E030B4164BDB68C3F37C
:101280000223C3F10704042C28BF04241D1D062DCE
:1012900001D9DD1E00E00025012303FA04F4013C1E
:1012A0002140A940AB40013B1A400A43002806DA1E
:1012B00000F00F001201D2B2074B1A5407E01201DE
:1012C000D2B200F1604000F5614080F8002330BCEC
:1012D000704700BF00ED00E014ED00E0420900F0AF
:1012E0001F00012303FA00F0014B43F8220070476E
:1012F00000E100E00138B0F1807F0AD2064B58606F
:10130000F021064A82F823100020986007221A6014
:1013100070470120704700BF10E000E000ED00E0E2
:10132000042805D1054A136843F00403136070478D
:10133000024A136823F004031360704710E000E0D2
:101340000F4B1A6842F001021A6059680D4A0A40B0
:101350005A601A6822F0847222F480321A601A6885
:1013600022F480221A605A6822F4FE025A604FF476
:101370001F029A604FF00062034B9A60704700BFF3
:10138000001002400000FFF800ED00E0124A12F0E9
:10139000070F07D0D11D21F00701C1F540631344A9
:1013A0000A4601E04FF440630C48026000214160AE
:1013B0001344083B23F00703094803605960196090
:1013C000991A51601360074B1960074B19604FF071
:1013D0000042064B1A6070473C0000203400002099
:1013E00030000020400C00202C0000203C0C00208D
:1013F000124B00E013461A688242FBD310B45C68BB
:101400001919884203D1416821445960184644683B
:1014100001198A420CD10A4909688A4206D05268E9
:10142000224442601A681268026002E0016000E033
:101430000260984200D0186010BC70473400002051
:101440003000002070B5044600F0D4FB394B1B6817
:101450000BB9FFF79BFF384B1B681C4253D194B16B
:10146000083414F0070F0ED024F00704083404F0F9
:10147000070343B14FF0500383F31188BFF36F8F1D
:10148000BFF34F8FFEE7002C3FD02C4B1B689C42D4
:101490003DD82B4B1D6801E02B4615466A689442E7
:1014A00002D92A68002AF7D1224A1268954230D020
:1014B0001E6808362A681A606B681B1B102B10D92F
:1014C000281910F0070F08D04FF0500383F311884C
:1014D000BFF36F8FBFF34F8FFEE743606C60FFF782
:1014E00087FF6A6815490B689B1A0B6015490968E4
:1014F0008B4201D213490B600F4B1B681A436A6081
:1015000000232B6006E0002604E0002602E000260F
:1015100000E0002600F008FC16F0070F08D04FF09E
:10152000500383F31188BFF36F8FBFF34F8FFEE734
:10153000304670BD300000203C0C00202C00002004
:1015400034000020400C0020A0B338B50346A0F1C1
:10155000080550F8042C1849096812EA010408D15A
:101560004FF0500383F31188BFF36F8FBFF34F8F9A
:10157000FEE750F8080C40B14FF0500383F3118898
:10158000BFF36F8FBFF34F8FFEE794B188B91C464E
:1015900022EA010243F8042C00F02CFB54F8043C2E
:1015A000064A11680B4413602846FFF721FF00F03C
:1015B000BBFB38BD704700BF3C0C00202C00002056
:1015C0000B4B1B68B3F1FF3F08D04FF0500383F380
:1015D0001188BFF36F8FBFF34F8FFEE74FF05003BB
:1015E00083F31188BFF36F8FBFF34F8FFEE700BF08
:1015F0000800002006480068006880F3088862B68A
:1016000061B6BFF34F8FBFF36F8F00DF00BF0000E5
:1016100008ED00E04FF0807340F8043C21F0010138
:1016200040F8081C034B40F80C3C40F8202C403894
:10163000704700BFC1150008000000000000000056
:10164000074B19680868B0E8F00F80F30988BFF30A
:101650006F8F4FF0000080F311884EF00D0E704731
:101660000C0D00204FF0500383F31188BFF36F8FF0
:10167000BFF34F8F0A4A136801331360012B0DD15A
:10168000084B1B6813F0FF0F08D04FF0500383F393
:101690001188BFF36F8FBFF34F8FFEE7704700BF16
:1016A0000800002004ED00E0094B1B6843B94FF02F
:1016B000500383F31188BFF36F8FBFF34F8FFEE7A3
:1016C000013B034A13600BB983F31188704700BFD5
:1016D00008000020000000000000000000000000E2
:1016E000EFF30980BFF36F8F0D4B1A6820E9F00FFD
:1016F00010602DE908404FF0500080F3118800F091
:10170000F5FB4FF0000080F31188BDE80840196830
:101710000868B0E8F00F80F30988BFF36F8F704757
:101720000C0D002008B54FF0500383F31188BFF370
:101730006F8FBFF34F8F00F065FA18B14FF08052F2
:10174000024B1A60002383F3118808BD04ED00E00A
:10175000064B1B68064AA2FB03239B09013B054A73
:1017600013600722044B1A60704700BF040000207A
:10177000D34D621014E000E010E000E000B583B04B
:101780001F4B1A78D2B20192FF221A701B78DBB27B
:101790008DF803309DF8033003F05003194A13709D
:1017A0000722194B1A6009E0174A1368013B1360BE
:1017B0009DF803305B00DBB28DF803309DF80330F9
:1017C00013F0800FF0D1104A13681B0203F4E0639A
:1017D0001360019BDBB20A4A13700C4B1A6842F487
:1017E00070021A601A6842F070421A60FFF7B0FF88
:1017F0000022074B1A60FFF7FDFEFFF7E1FE00BF76
:1018000000E400E0440C0020480C002020ED00E043
:101810000800002000F1080343604FF0FF328260AF
:10182000C360036100230360704700BF00230361AE
:10183000704700BF43684B609A688A609A6851603D
:1018400099600861036801330360704730B40D6824
:10185000B5F1FF3F01D1026907E000F1080200E0A5
:101860001A4653681C68A542FAD253684B609960C7
:101870008A605160086103680133036030BC7047BF
:1018800003694268816891608268416851605A6862
:10189000904201D182685A600022026118680138C2
:1018A000186070470A4B1B681B680BB9012300E0E6
:1018B000002323B14FF0FF32064B1A607047044BF0
:1018C0001B68DB68DB685A68024B1A60704700BF10
:1018D000500C00202C0D002010B50446006BFFF7C3
:1018E00033FE2046FFF730FE10BD00BF2DE9F04764
:1018F00080469946089D099F0A9C236B02F180420D
:10190000013A03EB820626F00706002306E0C85CD6
:10191000E21882F83400CA5C12B101330F2BF6D9F9
:10192000002384F84330062D00D90625E56265645E
:101930004FF0000AC4F848A0201DFFF777FF04F11C
:101940001800FFF773FF2461C5F10705A561646204
:10195000C4F84CA084F850A04A4641463046FFF7F0
:1019600059FE206007B13C60BDE8F08738B500241F
:1019700007E004EB840293000E481844FFF74AFF87
:101980000134062CF5D90C4D2846FFF743FF0B4CCC
:101990002046FFF73FFF0A48FFF73CFF0948FFF7E3
:1019A00039FF0948FFF736FF084B1D60084B1C60E4
:1019B00038BD00BF740C0020340D0020480D0020FD
:1019C000100D0020580C00205C0D0020500C002051
:1019D0006C0C002010B50446FFF744FE204A136843
:1019E000013313601F4B1B683BB91E4B1C6013680F
:1019F000012B0DD1FFF7BAFF0AE01B4B1B683BB967
:101A0000184B1B68DA6AE36A9A4201D8154B1C60CE
:101A1000164A136801331360E36A012202FA03F1E4
:101A2000134802680A43026003EB83039A00211DF6
:101A300010481044FFF7FEFEFFF736FE0A4B1B6806
:101A40006BB1084B1B68DA6AE36A9A4207D24FF01F
:101A50008052094B1A60BFF34F8FBFF36F8F10BDD9
:101A6000080D00200C0D0020540C0020300D00202B
:101A7000700D0020740C002004ED00E070B50446E9
:101A80000E461D4B1D681D4B18680430FFF7F8FE0D
:101A900050B91A4B1B68DA6A012303FA02F218499B
:101AA0000B6823EA02030B60B4F1FF3F07D136B1A4
:101AB000124B196804311348FFF7BCFE70BD2C446B
:101AC0000E4B1B685C60A54207D90F4B18680B4B87
:101AD00019680431FFF7BAFE70BD0C4B1868074B4C
:101AE00019680431FFF7B2FE094B1B689C4201D212
:101AF000074B1C6070BD00BF280D00200C0D00209E
:101B0000700D00205C0D00206C0C0020500C00209B
:101B10002C0D00202DE9F04385B006460F461546F2
:101B200098469000FFF78EFC60B181465420FFF785
:101B300089FC044610B1C0F8309004E04846FFF735
:101B400003FD00E000248CB10023039302940D9B5D
:101B500001930C9B009343462A4639463046FFF7D3
:101B6000C5FE2046FFF736FF012001E04FF0FF30B1
:101B700005B0BDE8F08300BF00B583B0174B0193FB
:101B800000230093802216491648FFF7C3FF01285F
:101B900014D14FF0500383F31188BFF36F8FBFF35D
:101BA0004F8F4FF0FF32104B1A6001220F4B1A601B
:101BB00000220F4B1A60FFF7E1FD0BE0B0F1FF3F91
:101BC00008D14FF0500383F31188BFF36F8FBFF339
:101BD0004F8FFEE703B05DF804FB00BF240D00202B
:101BE00080210008C51E00082C0D0020540C002088
:101BF000280D0020024A136801331360704700BFAC
:101C0000000D0020F8B53D4B1B68002B69D13C4B03
:101C10001D6801351D60C5B93A4B1B681B6843B18F
:101C20004FF0500383F31188BFF36F8FBFF34F8FD3
:101C3000FEE7344A1168344B186810601960334A63
:101C4000136801331360FFF72DFE314B1B689D4273
:101C500003D200243AE0012400E00024294B1B6851
:101C60001B680BB9012300E0002323B14FF0FF32C2
:101C7000274B1A602AE0234B1B68DB68DE68736819
:101C80009D4202D2224A136020E0371D3846FFF7FA
:101C9000F7FDB36A1BB106F11800FFF7F1FDF36A17
:101CA000012202FA03F11B4802680A43026003EBB7
:101CB00083039A00394618481044FFF7BBFDF26AC7
:101CC000164B1B68DB6A9A42C5D2C7E7134B1B68E9
:101CD000DB6A03EB83039A000F4B9B58012B06D85A
:101CE00006E00F4A136801331360002400E001246A
:101CF0000C4B1B6803B101242046F8BD000D0020E9
:101D0000280D0020500C00206C0C00204C0C0020F2
:101D10002C0D0020700D0020740C00200C0D0020F4
:101D2000700C0020740D002038B5344B1B6843B98B
:101D30004FF0500383F31188BFF36F8FBFF34F8FC2
:101D4000FEE7FFF78FFC2D4B1A68013A1A601B68FB
:101D5000002B4CD12A4B1B6833BB00244AE0294B93
:101D6000DB68DC6804F11800FFF78AFD251D2846B2
:101D7000FFF786FDE36A012202FA03F122480268B6
:101D80000A43026003EB83039A0029461F4810446C
:101D9000FFF750FDE26A1E4B1B68DB6A9A4204D3D0
:101DA00001221C4B1A6000E00024164B1B68002B1C
:101DB000D5D10CB1FFF776FD174B1C6854B1FFF776
:101DC00021FF10B10122134B1A60013CF7D1002210
:101DD000114B1A600F4B1B685BB14FF080520F4BD9
:101DE0001A60BFF34F8FBFF36F8F012402E000240E
:101DF00000E00024FFF758FC204638BD000D00200D
:101E0000080D0020100D0020700D0020740C002023
:101E10000C0D0020740D0020700C002004ED00E07B
:101E200010B5A8B10446104B1B6843B14FF05003E6
:101E300083F31188BFF36F8FBFF34F8FFEE7FFF778
:101E4000D9FE00212046FFF719FEFFF76DFF00E0E5
:101E5000002038B94FF08052044B1A60BFF34F8F07
:101E6000BFF36F8F10BD00BF000D002004ED00E038
:101E700010B51BE0FFF7BEFE0F4B1C68FFF754FFC9
:101E8000A4B1FFF7EFFB0C4BDB68DC68201DFFF70C
:101E9000F7FC0A4A1368013B1360094A1368013BC7
:101EA0001360FFF701FC2046FFF716FD044B1B688B
:101EB000002BDFD110BD00BF580C0020080D002002
:101EC000040D002008B5FFF7D3FF064B1B68012B5C
:101ED000F9D94FF08052044B1A60BFF34F8FBFF314
:101EE0006F8FF0E7740C002004ED00E01F4B1B68BF
:101EF0001BB101221E4B1A60704700221C4B1A6056
:101F00001C4B1B68B3FA83F3DBB2C3F11F0303EB73
:101F100083018A0018498A5842B94FF0500383F36D
:101F20001188BFF36F8FBFF34F8FFEE730B4124DB0
:101F30009900CA18900028444268546844601944C3
:101F40008A0008322A44944205D1606803EB830179
:101F50008A002A44506003EB83039A00064B1A441C
:101F60005368DA68054B1A6030BC7047000D0020DA
:101F7000740D0020700D0020740C00200C0D00204A
:101F8000054B1B6823B1054B1B681BB9022070472A
:101F90000120704700207047540C0020000D0020E5
:101FA000842801D0033070470020704708B5FFF740
:101FB000E3FD002008BD00BFF0B585B00F464468C2
:101FC00005680669B0F90800FFF7EAFF03AB019363
:101FD00000903B46B2B229462046FFF79BFD012800
:101FE00001D1039800E0002005B0F0BD08B508B9A4
:101FF0000120FFE7FFF714FF002008BD08B5FFF739
:10200000BFFF012801D0FFF78DFB08BD00B589B0E7
:10201000002201461E20FFF72FF91E20FFF75EF970
:10202000154BDA6942F00402DA61DB6903F004035C
:102030000193019B02A903A8FEF7F2FFFEF7E0FF60
:1020400040000E4BA3FB00239B0C013B0C480D4AA8
:10205000026040F2E732C2604360002303618360A4
:10206000FEF774FC18B90648FEF756FB00E00120A5
:1020700009B05DF804FB00BF0010024083DE1B4383
:10208000840D002000080040002103E00B4B5B584A
:10209000435004310A480B4B42189A42F6D30A4A7D
:1020A00002E0002342F8043B084B9A42F9D3FFF7C1
:1020B00047F9FEF7EFF8FEF795FA70479021000810
:1020C000000000200C0000200C000020C40D0020A7
:1020D000FEE70000F8B500BFF8BC08BC9E4670479C
:0C20E000F8B500BFF8BC08BC9E46704775
:1020EC002300000002000000EB0000000B000000C9
:1020FC00020000005C2100085D04000800000000E4
:10210C00000000008000000050210008E9040008D5
:10211C000000000000000000800000000203040525
:10212C00060708090A0B0C0D0E0F10100102000017
:10213C004C454430000000005372632F6D61696E92
:10214C002E6300005461736B5F4C454431000000FA
:10215C005461736B5F4C454430000000000000007C
:10216C00000000000102030406070809000000003B
:0C217C000102030449444C45000000002F
:042188005D020008EC
:04218C003502000810
:0C2190000100000000A24A04AAAAAAAAAA
:040000050800208946
:00000001FF
